:100000000C9463000C9467150C9494150C948B005D
:100010000C948B000C948B000C948B000C948B0034
:100020000C948B000C948B000C948B000C948B0024
:100030000C948B000C948B000C948B000C948B0014
:100040000C94BA130C948B000C94A7110C94EA1125
:100050000C948B000C948B000C948B000C948B00F4
:100060000C948B000C948B00000000070002010030
:100070000003040600000000000000000102040864
:100080001020408001020408102001020408102002
:10009000040404040404040402020202020203032E
:1000A00003030303000000002300260029000000D2
:1000B0000000250028002B0000000000240027007D
:1000C0002A00A30FA81211241FBECFEFD8E0DEBF75
:1000D000CDBF13E0A0E0B1E0E2E9F3E302C0059098
:1000E0000D92A830B107D9F726E0A8E0B3E001C02F
:1000F0001D92AE3EB207E1F710E0C3E6D0E004C0C7
:100100002197FE010E94A919C136D107C9F70E94A3
:10011000E3120C94C7190C940000DC01FB01129649
:100120008C911297808313968C91139781831496E8
:100130008C911497828315968C91159783831696CC
:100140008C911697848317968C91179785831896B0
:100150008C911897868319968C91878388E090E01C
:100160000895FC01DB014C9150E060E070E04283B7
:1001700053836483758311968C911197582B428316
:1001800053836483758312968C911297682B4283F4
:1001900053836483758313968C911397782B4283D2
:1001A00053836483758314964C91149750E060E0F8
:1001B00070E0468357836087718715968C911597F9
:1001C000582B468357836087718716968C911697B4
:1001D000682B468357836087718717968C91782B9D
:1001E000468357836087718788E090E0089582E1B5
:1001F00091E0089580E291E0089581E491E008950E
:100200008AE591E008958BE791E008958EE891E00A
:1002100008958DE792E008958FEA91E00895A0E0B7
:10022000B0E0E5E1F1E00C944419DC01FB01129629
:10023000CC9112971396BC9013971496CC90149768
:100240001596DC9015971696EC9016971796FC90DD
:10025000179718961C9118971996DC911997C083D7
:100260002C2F3B2DA601B701812F9D2F08E00E9466
:100270008D1921832C2F3B2DA601B701812F9D2F96
:1002800000E10E948D1922832C2F3B2DA601B7017E
:10029000812F9D2F08E10E948D1923832C2F3B2D48
:1002A000A601B701812F9D2F00E20E948D192483A2
:1002B0002C2F3B2DA601B701812F9D2F08E20E9414
:1002C0008D1925832C2F3B2DA601B701812F9D2F42
:1002D00000E30E948D1926832C2F3B2DA601B70128
:1002E000812F9D2F08E30E948D1927831A96CC91A8
:1002F0001A971B96CC901B971C96DC901C971D960A
:10030000EC901D971E96FC901E971F961C911F97B0
:100310005096DC9150975196AC91C0872C2F3C2D74
:100320004D2D5E2D6F2D712F8D2F9A2F08E00E947D
:100330008D1921872C2F3C2D4D2D5E2D6F2D712F6A
:100340008D2F9A2F00E10E948D1922872C2F3C2D92
:100350004D2D5E2D6F2D712F8D2F9A2F08E10E944C
:100360008D1923872C2F3C2D4D2D5E2D6F2D712F38
:100370008D2F9A2F00E20E948D1924872C2F3C2D5F
:100380004D2D5E2D6F2D712F8D2F9A2F08E20E941B
:100390008D1925872C2F3C2D4D2D5E2D6F2D712F06
:1003A0008D2F9A2F00E30E948D1926872C2F3C2D2C
:1003B0004D2D5E2D6F2D712F8D2F9A2F08E30E94EA
:1003C0008D19278780E190E0CDB7DEB7E9E00C9486
:1003D0006019A0E0B0E0EFEEF1E00C943E19FC01F2
:1003E000DB0111962C91119730E040E050E060E085
:1003F00070E080E090E008E00E947219522E632EB7
:10040000742E852E962EA72ED82FC92F12962C919A
:10041000129730E040E050E060E070E080E090E073
:1004200000E10E947219B52CB22AC62CC32AD72C1F
:10043000D42AE82CE52AF92CF62A1A2D172BD82BCA
:10044000C92B8C91B82A13962C91139730E040E079
:1004500050E060E070E080E090E008E10E947219F6
:10046000B22AC32AD42AE52AF62A172BD82BC92B5D
:1004700014962C91149730E040E050E060E070E07A
:1004800080E090E000E20E947219B22AC32AD42AC6
:10049000E52AF62A172BD82BC92B15962C911597E0
:1004A00030E040E050E060E070E080E090E008E2A2
:1004B0000E947219B22AC32AD42AE52AF62A172BD7
:1004C000D82BC92B16962C91169730E040E050E0BF
:1004D00060E070E080E090E000E30E947219B22AD0
:1004E000C32AD42AE52AF62A172BD82BC92B17960C
:1004F0002C91179730E040E050E060E070E080E041
:1005000090E008E30E9472192B293C294D295E29AD
:100510006F29712B8D2B9C2B22833383448355832E
:10052000668377838087918719962C91199730E09D
:1005300040E050E060E070E080E090E008E00E9481
:100540007219522E632E742E852E962EA72E182FDA
:10055000C92F1A962C911A9730E040E050E060E0E5
:1005600070E080E090E000E10E947219D52DD22B5E
:10057000B62CB32AC72CC42AD82CD52AE92CE62AB3
:10058000A72AF12EF82AC92B18961C911897D12B5F
:100590001B962C911B9730E040E050E060E070E04B
:1005A00080E090E008E10E947219D22BB32AC42A9D
:1005B000D52AE62AA72A1F2D182BC92B1C962C9169
:1005C0001C9730E040E050E060E070E080E090E0B8
:1005D00000E20E947219D22BB32AC42AD52AE62A35
:1005E000FA2CF72A182BC92B1D962C911D9730E059
:1005F00040E050E060E070E080E090E008E20E94BF
:100600007219D22BB32AC42AD52AE62AF72A182B24
:10061000C92B1E962C911E9730E040E050E060E020
:1006200070E080E090E000E30E947219D22BB32AC0
:10063000C42AD52AE62AF72A182BC92B1F962C91F3
:1006400030E040E050E060E070E080E090E008E3FF
:100650000E9472192D2B3B294C295D296E297F2977
:10066000812B9C2B22873387448755876687778722
:10067000808B918B80E190E0CDB7DEB7EFE00C94FA
:100680005A1980ED91E0089589EE91E00895A0E077
:10069000B0E0EDE4F3E00C944419DC01FB011296A8
:1006A000CC9112971396BC9013971496CC901497F4
:1006B0001596DC9015971696EC9016971796FC9069
:1006C000179718961C9118971996DC911997C08363
:1006D0002C2F3B2DA601B701812F9D2F08E00E94F2
:1006E0008D1921832C2F3B2DA601B701812F9D2F22
:1006F00000E10E948D1922832C2F3B2DA601B7010A
:10070000812F9D2F08E10E948D1923832C2F3B2DD3
:10071000A601B701812F9D2F00E20E948D1924832D
:100720002C2F3B2DA601B701812F9D2F08E20E949F
:100730008D1925832C2F3B2DA601B701812F9D2FCD
:1007400000E30E948D1926832C2F3B2DA601B701B3
:10075000812F9D2F08E30E948D1927831A96CC9133
:100760001A971B96CC901B971C96DC901C971D9695
:10077000EC901D971E96FC901E971F961C911F973C
:100780005096DC9150975196AC91C0872C2F3C2D00
:100790004D2D5E2D6F2D712F8D2F9A2F08E00E9409
:1007A0008D1921872C2F3C2D4D2D5E2D6F2D712FF6
:1007B0008D2F9A2F00E10E948D1922872C2F3C2D1E
:1007C0004D2D5E2D6F2D712F8D2F9A2F08E10E94D8
:1007D0008D1923872C2F3C2D4D2D5E2D6F2D712FC4
:1007E0008D2F9A2F00E20E948D1924872C2F3C2DEB
:1007F0004D2D5E2D6F2D712F8D2F9A2F08E20E94A7
:100800008D1925872C2F3C2D4D2D5E2D6F2D712F91
:100810008D2F9A2F00E30E948D1926872C2F3C2DB7
:100820004D2D5E2D6F2D712F8D2F9A2F08E30E9475
:100830008D19278780E190E0CDB7DEB7E9E00C9411
:100840006019A0E0B0E0E7E2F4E00C943E19FC018E
:10085000DB0111962C91119730E040E050E060E010
:1008600070E080E090E008E00E947219522E632E42
:10087000742E852E962EA72ED82FC92F12962C9126
:10088000129730E040E050E060E070E080E090E0FF
:1008900000E10E947219B52CB22AC62CC32AD72CAB
:1008A000D42AE82CE52AF92CF62A1A2D172BD82B56
:1008B000C92B8C91B82A13962C91139730E040E005
:1008C00050E060E070E080E090E008E10E94721982
:1008D000B22AC32AD42AE52AF62A172BD82BC92BE9
:1008E00014962C91149730E040E050E060E070E006
:1008F00080E090E000E20E947219B22AC32AD42A52
:10090000E52AF62A172BD82BC92B15962C9115976B
:1009100030E040E050E060E070E080E090E008E22D
:100920000E947219B22AC32AD42AE52AF62A172B62
:10093000D82BC92B16962C91169730E040E050E04A
:1009400060E070E080E090E000E30E947219B22A5B
:10095000C32AD42AE52AF62A172BD82BC92B179697
:100960002C91179730E040E050E060E070E080E0CC
:1009700090E008E30E9472192B293C294D295E2939
:100980006F29712B8D2B9C2B2283338344835583BA
:10099000668377838087918719962C91199730E029
:1009A00040E050E060E070E080E090E008E00E940D
:1009B0007219522E632E742E852E962EA72E182F66
:1009C000C92F1A962C911A9730E040E050E060E071
:1009D00070E080E090E000E10E947219D52DD22BEA
:1009E000B62CB32AC72CC42AD82CD52AE92CE62A3F
:1009F000A72AF12EF82AC92B18961C911897D12BEB
:100A00001B962C911B9730E040E050E060E070E0D6
:100A100080E090E008E10E947219D22BB32AC42A28
:100A2000D52AE62AA72A1F2D182BC92B1C962C91F4
:100A30001C9730E040E050E060E070E080E090E043
:100A400000E20E947219D22BB32AC42AD52AE62AC0
:100A5000FA2CF72A182BC92B1D962C911D9730E0E4
:100A600040E050E060E070E080E090E008E20E944A
:100A70007219D22BB32AC42AD52AE62AF72A182BB0
:100A8000C92B1E962C911E9730E040E050E060E0AC
:100A900070E080E090E000E30E947219D22BB32A4C
:100AA000C42AD52AE62AF72A182BC92B1F962C917F
:100AB00030E040E050E060E070E080E090E008E38B
:100AC0000E9472192D2B3B294C295D296E297F2903
:100AD000812B9C2B228733874487558766877787AE
:100AE000808B918B80E190E0CDB7DEB7EFE00C9486
:100AF0005A198AE092E0089583E292E00895FC0199
:100B00002281338130934E0320934D038285938558
:100B10009093500380934F030895809112038F5F49
:100B20008093120308950F931F93CF93DF938C014B
:100B3000EC012696CE010E942104D8015896ED9131
:100B4000FC915997CE010995DF91CF911F910F919B
:100B50000895FC01828D938D08958AE092E00895B6
:100B600083E292E00895FC01EA54FD4F80810895EC
:100B7000A5E0B0E0EEEBF5E00C9443198C016B01BD
:100B8000643671053CF0FC01EA54FD4F80818823F6
:100B900009F478C0DA01ED91FC910190F081E02D2B
:100BA000B801695C7E4FCA0109957801B0EDEB1A76
:100BB000BEEFFB0A2FEFF70120832EEF3196208343
:100BC00031968083319690833196292F280F209576
:100BD00020833196C082D801AA5CBE4FDC9245E0EA
:100BE00050E020E030E0BC016A5F7F4F641775077A
:100BF00034F0A1912A0F311D4F5F5F4FF7CF6C0189
:100C0000F8E0CF0ED11C800F911FFC01E95CFE4F74
:100C10002095208329E1C21621E0D206CCF45701A9
:100C2000C5018E199F098C159D0584F4D801129673
:100C30008D919C911397F50161915F01DC01ED911C
:100C4000FC910190F081E02D0995EACFC6011CC00E
:100C500085EB92E09A83898383E08B8384E492E03E
:100C60009D838C83D801ED91FC910190F081E02D62
:100C7000AE014F5F5F4F67E070E0C80109958FEFED
:100C80009FEF02C080E090E02596EAE00C945F19A7
:100C900060E0809106010E94261660E080910401C8
:100CA0000E9426160895CF93C62F682F880F770BC2
:100CB000809106010E94DA1461E0809102010E9495
:100CC00026166C2FCC0F770B809104010E94DA144A
:100CD00061E0809100010E942616CF91089561E0A5
:100CE0008BE00E94EA1560E08AE00E94EA1560E06D
:100CF0008BE00E94261682E090E00E94101461E0D2
:100D00008BE00E9426168AE090E00E94101460E0BA
:100D10008BE00E94261620E432E44FE050E061E0D0
:100D20008AE00E94551460930A0370930B0380932A
:100D30000C0390930D030E94DD1726E933E44BE08A
:100D40005DE30E94691820E030E040E05FE30E942C
:100D500069180E94A517709309036093080308950A
:100D60008F929F92AF92BF92CF92DF92EF92FF92BB
:100D70000F931F93CF930E940414C0900E03D09042
:100D80000F03E0901003F0901103DC01CB018C19EC
:100D90009D09AE09BF09883E9340A105B10508F43D
:100DA0003FC080E00E94571560910A0170910B01CD
:100DB00080E69AEE0E94E6186B01E12CF12C0E946D
:100DC0000414C091120300910E0310910F0320919F
:100DD0001003309111034B015C01801A910AA20AA1
:100DE000B30AA5019401C701B6010E940E198C2F08
:100DF00090E0829FB001839F700D929F700D11242F
:100E000070931403609313030E94041460930E0301
:100E100070930F03809310039093110310921203A9
:100E2000CF911F910F91FF90EF90DF90CF90BF90E7
:100E3000AF909F908F900895CF934091550350911C
:100E4000560360915703709158038091530390911A
:100E500054030E9425121092FE051092FD05109277
:100E600000061092FF0510920406109203061092DD
:100E7000020610920106E9E9F5E080E090E0219198
:100E80003191232BB1F4FC01EE0FFF1FE756FA4F0F
:100E900021E333E03183208383589F4F90933603BF
:100EA0008093350381E593E0909338038093370373
:100EB00004C001968931910511F7EBECF5E080E073
:100EC00090E021913191232B81F4FC01EE0FFF1F63
:100ED000E553FA4F25E133E0318320838C599F4F4E
:100EE000909318038093170304C0019689319105EC
:100EF00041F740E855E260E070E083E396E00E944D
:100F0000251260E0809108010E94EA1542E050E05D
:100F10006DE875E080E00E94371510921203109280
:100F200014031092130310920E0310920F031092E9
:100F3000100310921103C4E061E08C2F0E94EA15A7
:100F4000CF5FC830C9F7CF910895CF92DF92EF926B
:100F5000FF9220E030E06A017B01022E04C0F6948B
:100F6000E794D794C7940A94D2F7FC01C192CF01B9
:100F7000285F3F4F2032310571F7FF90EF90DF90EF
:100F8000CF9008954F925F926F927F92AF92BF92EF
:100F9000CF92DF92EF92FF920F931F93CF93DF9345
:100FA000EC017B018A81FB0180838B8181838C81B1
:100FB00082838D818383DB01179640E050E0BA0184
:100FC000E4E0F0E04A805B806C807D808F010C5F04
:100FD0001F4F4415550566057705C0F48A859B8526
:100FE000E80FF91F3497D080218192818381FD0120
:100FF0003397D08231962083319690838C93F80179
:101000004F5F5F4F6F4F7F4F1496DCCFEE0DFF1D8C
:101010008C8580838D8581838E8582838F85838374
:1010200080E090E040E050E0BA014C845D846E8442
:101030007F84F701E00FF11F0C5F1F4F441555052A
:1010400066057705B8F4AC89BD89A80FB91FCC90A7
:101050001196DC90119712963C91129713962C9151
:10106000C082D182328323834F5F5F4F6F4F7F4FA8
:101070000496DBCF8E8980838F898183888D8283DC
:10108000898D8383412C512C32018E899F89A88DB3
:10109000B98D481659066A067B0680F55201AA0CDE
:1010A000BB1CEC8DFD8DEA0DFB1DA081B181FD0106
:1010B00001900020E9F731976F01CA1ADB0AA601F7
:1010C00060E070E0C701800F911F0E94A5070C5FD0
:1010D0001F4F8C8D9D8DFC01EA0DFB1D6081718180
:1010E000A601C701800F911F0E94BE190C0D1D1D86
:1010F000FFEF4F1A5F0A6F0A7F0AC7CFC801DF915F
:10110000CF911F910F91FF90EF90DF90CF90BF9004
:10111000AF907F906F905F904F900895EF92FF9205
:101120000F931F93CF93DF938C017B01EC018A8196
:10113000FB018193AB81BC81ED0109900020E9F7AF
:101140002197CA1BDB0BAE0160E070E0CF010E946B
:10115000A507F80163817481AE01C70105960E945D
:10116000BE19CE010596CDB7DEB7E6E00C94631943
:10117000A0E0B0E0EEEBF8E00C9445196C01EB0157
:10118000FC018281888383818983A481B581FD01EB
:1011900001900020E9F731978F010A1B1B0BA80172
:1011A00060E070E0CE0102960E94A507F60164811E
:1011B0007581A801CE0106960E94BE19C801069647
:1011C000F601A681B781FD0101900020E9F7319772
:1011D0007F01EA1AFB0AA70160E070E08C0F9D1FF7
:1011E0000E94A507065F1F4FF60166817781A70160
:1011F000CE01800F911F0E94BE190E0D1F1DF6011A
:10120000A085B185FD0101900020E9F731977F01AC
:10121000EA1AFB0AA70160E070E0CE01800F911F7F
:101220000E94A5070C5F1F4FF60160857185A7011D
:10123000CE01800F911F0E94BE19C8018E0D9F1D07
:10124000F6016285438534852585C80FD91F6883DB
:1012500049833A832B830496CDB7DEB7E8E00C943C
:101260006119CF92DF92EF92FF92FC0110821182FE
:1012700012821382DB0120E030E04D9150E0022E1B
:1012800002C0440F551F0A94E2F7052E000C660BAE
:10129000770BC080D180E280F3804C295D296E29D4
:1012A0007F294083518362837383285F3F4F2032BD
:1012B000310519F7FF90EF90DF90CF900895A4E0EB
:1012C000B0E0E5E6F9E00C9441197C018B01FB01EB
:1012D0008191BF01F7018283CE0101960E943109FD
:1012E00089819A81AB81BC814C015D01F5E08F0E53
:1012F000911CA11CB11C680125E0C20ED11CA601E5
:10130000401B510B60E070E0481559056A057B05EC
:1013100048F4F60141916F019F0122503109F90112
:101320004083EDCFF801E80FF91F14820C5F1F4FC7
:10133000F7011483038305962496ECE00C945D1961
:10134000ACE0B0E0E6EAF9E00C943D197C018B01D9
:10135000DB018C9190E0F7019383828311962C91AD
:10136000922B938382836E5F7F4FCE0109960E94FA
:10137000310989849A84AB84BC84B501A4014A5F95
:101380005F4F6F4F7F4FF8013696CF01801B910B57
:10139000A0E0B0E084179507A607B70728F481916D
:1013A000DF0112978C93F1CFF801E80DF91D15823A
:1013B000C8010596D70115969C938E931497B40196
:1013C0006A5F7F4F600F711FCE0105960E94310941
:1013D000BAE08B0E911C4D815E816F81788524016E
:1013E000092C000C66087708440E551E661E771EF1
:1013F000F801E80DF91DCF01801B910BA0E0B0E0D2
:1014000084159505A605B70528F48191DF0112978B
:101410008C93F1CF6401C40ED51EB8016C0D7D1DF7
:10142000FB0131971082C4010197800F911FF701D2
:1014300097838683CE0101960E943109A6014C5FF5
:101440005F4F49805A806B807C804A01052E000CDA
:10145000AA08BB08840C951CA61CB71CF801E40F55
:10146000F51F9F01201B310BC901A0E0B0E08815DA
:101470009905AA05BB0528F48191DF0112978C9389
:10148000F0CFCA01840D951DF801E80FF91FDF01A7
:1014900011971C929A0121503109020F131FD70195
:1014A00019961C930E9318972181428150E060E0B9
:1014B00070E0BA0155274427522B2081422B23810B
:1014C000722BF701428753876487758704962C96A1
:1014D000E0E10C945919A8E0B0E0E1E7FAE00C94DF
:1014E0003B198C015B01DB018C9111969C9111974A
:1014F0001296CC901297D12CE12CF12C7601DD24A0
:10150000CC24D92AC82A13968C91F82AF801828112
:101510009381A481B5818C159D05AE05BF0570F43E
:10152000B601660F771F660F771F828593850E942D
:10153000F012D8011B969C938E931A97F801C282E1
:10154000D382E482F582D5011796C12CD12C760185
:10155000F4E08F2E912C98012A5F3F4FF8014281D1
:10156000538164817581C4010496C416D506E606CC
:10157000F70680F54C9150E060E070E0742F66272C
:1015800055274427FD013397E0814E2BFD0132970B
:10159000E0815E2BFD013197E0816E2BF8014683DF
:1015A0005783608771874C01089742855385840F64
:1015B000951FF9014081518162817381FC01408353
:1015C000518362837383FFEFCF1ADF0AEF0AFF0AAA
:1015D0001496C4CFF401EA0DFB1D20813181C28035
:1015E000D12CE12CF12C7601DD24CC24D32AC22A83
:1015F0002381F22A4C01F80184859585A685B7855B
:101600008C159D05AE05BF0570F4B601660F771FFA
:10161000660F771F848995890E94F012D80155962C
:101620009C938E935497F801C486D586E686F786F8
:1016300020E030E0C12CD12C7601D8015096F80181
:101640004485558566857785F501E80DF91DC4014A
:101650000496C416D506E606F70648F59180428141
:1016600050E060E070E0BA01552744275929908086
:101670004929E3817E2BF801408B518B628B738B60
:101680004C0184899589FC01E20FF31F4D915D9116
:101690006D917C9113974083518362837383FFEF35
:1016A000CF1ADF0AEF0AFF0A2C5F3F4FC8CF208115
:1016B0003181C280D12CE12CF12C7601DD24CC24A7
:1016C000D32AC22A2381F22A4C01F80186899789FC
:1016D000A08DB18D8C159D05AE05BF0560F4B601DA
:1016E000660F771F848D958D0E94F012D8015D964C
:1016F0009C938E935C97F801C68AD78AE08EF18E10
:10170000412C512C32011801FAE12F0E311CF80145
:1017100086899789A08DB18D481659066A067B0681
:1017200008F05AC0B501680D791DCE0101960E94DE
:10173000310994012C5F3F4FC980DA80EB80FC8037
:10174000C901032E000CAA0BBB0BAC01BD014C0D53
:101750005D1D6E1D7F1D4D835E836F837887F50150
:10176000E20FF31FAF014A195B09CA01A0E0B0E024
:101770004D815E816F81788584179507A607B7072D
:1017800028F44191DF0112974C93ECCFC9018C0DE5
:101790009D1DF501E80FF91F319710822150310985
:1017A0002A0D3B1DD8015B963C932E935A974C0112
:1017B000C201880F991F5C96ED91FC915D97E80F2F
:1017C000F91FD1018D919C9191838083BFEF4B1ABA
:1017D0005B0A6B0A7B0A9BCFC4012896E2E10C945A
:1017E0005719AAE0B0E0E7EFFBE00C9449198C012F
:1017F0008DE992E09A8389831B821C821D821E825E
:101800001F82188619861A86D801ED91FC910190E5
:10181000F081E02DAE014F5F5F4F6AE070E0C801DC
:1018200009950E940414F801608771878287938765
:101830002A96E4E00C9465194F925F926F927F9222
:10184000AF92BF92CF92DF92EF92FF920F931F93CE
:10185000CF93DF93CDB7DEB72E970FB6F894DEBFE8
:101860000FBECDBF8C0189EA92E09A8389831C82E6
:101870001B828CE792E09E838D8398878F839A8763
:1018800089871B861C861D861E86680188EBC81A00
:101890008DEFD80A7801A6E8EA1AADEFFA0A98E1C6
:1018A000492E55245394612C712CD601ED91FC9155
:1018B0003097B9F1848195819C838B83808191815C
:1018C0009E838D8382819381DC01ED91FC91048064
:1018D000F581E02D099598878F83D601ED91FC91D4
:1018E00082819381DC01ED91FC910680F781E02DEE
:1018F00009959A8789874B865C866D867E86F80176
:1019000080819181F601A081B18118966D917C91C1
:101910001997DC01ED91FC91AE014F5F5F4FC8015B
:101920000995B2E0CB0ED11CCE14DF0409F0BDCF77
:101930006801E4E5CE1AEDEFDE0A88E1482E552471
:101940005394612C712CF701A081B1811097E1F1C2
:1019500012968D919C9113979C838B8314968D91F5
:101960009C9115979E838D83ED91FC911197048036
:10197000F581E02DCD01099598878F83D7018D9151
:101980009C91DC01ED91FC910680F781E02D099599
:101990009A8789874B865C866D867E86D801ED9115
:1019A000FC91A080B180F70180819181DC01ED91F3
:1019B000FC910280F381E02D0995AE014F5F5F4FEE
:1019C000BC01C801F5010995F2E0EF0EF11CEC1421
:1019D000FD0409F0B8CFF801EA54FD4F81E080839F
:1019E0002E960FB6F894DEBF0FBECDBFDF91CF911C
:1019F0001F910F91FF90EF90DF90CF90BF90AF902D
:101A00007F906F905F904F900895AAE0B0E0EBE078
:101A1000FDE00C9441198C015B018DE992E09A8301
:101A200089831B821C821D821E821F821886198652
:101A30001A860E940414F801C084D184E284F384DD
:101A40009B01AC012C193D094E095F0969017A011E
:101A5000B501CE0101960E94B10088EE882E83E088
:101A6000982EA12CB12CC701B601A50194010E94AA
:101A70000E19CB80DC80ED80FE80C20ED31EE41EEA
:101A8000F51ECB82DC82ED82FE829B01AC0160E41C
:101A900072E48FE090E00E94D618CF80D884E98469
:101AA000FA84DC01CB018C0D9D1DAE1DBF1D8F8303
:101AB0009887A987BA870E940414CB80DC80ED80C8
:101AC000FE8031E0C31AD108E108F108A5019401B4
:101AD0000E940E19C21AD30AE40AF50AF801C48654
:101AE000D586E686F786CF80D884E984FA84F6E343
:101AF000DF1AF5E6EF0AF4ECFF0A9B01AC0160E4A3
:101B000072E48FE090E00E94D618C61AD70AE80A5D
:101B1000F90AF801C08AD18AE28AF38AB801605FC3
:101B20007F4FC8010C960E94E5100E940414F80132
:101B3000E554FD4F60837183828393832A96ECE0A2
:101B40000C945D19A0E1B0E0E8EAFDE00C943B19CB
:101B5000988B8F870E9404144B015C012F85388974
:101B600025543D4F3E832D83F90180819181A281CF
:101B7000B381A5019401281B390B4A0B5B0BDA01D9
:101B8000C901893F9A42A105B10528F0EF85F8897E
:101B9000EA54FD4F10820F85188904551D4FD80156
:101BA0008D919C91892B81F0EF85F889E154FD4F4F
:101BB00080819181A281B38188159905AA05BB0511
:101BC00018F4F801118210826F847888FCE46F1A8F
:101BD000FDEF7F0A2F85388920553D4F3A832983B1
:101BE000CF84D88838E1C30ED11C4F8558894A5418
:101BF0005D4F58874F832F8538892C533D4F3A8747
:101C000029874F8558894D535D4F5C874B87EF84FB
:101C1000F88852E5E51A5DEFF50A2F8538892E54CC
:101C20003D4F3C832B834F85588941545D4F5E87E0
:101C30004D871401250154E1250E311C411C511C16
:101C4000EF85F88984899589A689B789892B8A2B9C
:101C50008B2B89F4AF85B88912968D919C9113973F
:101C6000DC01ED91FC910680F781E02D09959C0146
:101C700097FF15C037C10E940414DC01CB018819FD
:101C80009909AA09BB09EF85F8892489358946890C
:101C90005789281739074A075B07E0F64BC1D3017C
:101CA0008D919C911197820F931F8D939C93F801B6
:101CB0004081518147305105D9F4AB81BC818D9170
:101CC0009C911197AC014F5F5F4F4D935C93EF85F3
:101CD000F889E80FF91F208FF70180819181019722
:101CE00091838083892B09F0ABCF88E090E02FC0EF
:101CF0004115510521F52F3F310569F481E090E050
:101D0000F80191838083AD85BE852D923D924D92E1
:101D10005C92139795CF0E940414DC01CB018819C3
:101D20009909AA09BB0989389341A105B10508F4AD
:101D300087CFEF85F889EA54FD4F1082FBC0413010
:101D40005105B1F42E3F310531F482E090E0D80125
:101D50008D939C9375CFF80111821082AF81B88565
:101D60008C9181116DCF8F8598890E94F10B68CF7E
:101D70004230510569F4F70131832083AB81BC8186
:101D80001D921C9283E090E0F801918380832EC025
:101D90004330510561F4322F2227F7018081918170
:101DA000280F391F3183208384E090E0D0CF443066
:101DB000510581F460E071E00E94FA188F3F9105AF
:101DC00031F485E090E0F8019183808339CF11826E
:101DD000108236CF4530510569F4E981FA813183AB
:101DE0002083E6E0F0E0D801ED93FC93D3012D933E
:101DF0003C9326CF4630510599F4322F2227E981B2
:101E0000FA8180819181280F391F31832083E7E097
:101E1000F0E0D801ED93FC93D7018D919C9162CFB6
:101E20004830510509F00CCFF8011182108260E0B2
:101E300071E00E94FA188F3F910509F001CFA98146
:101E4000BA818D919C910097C9F48F8598890E94E1
:101E5000F10B8F8598890E941C0CEF85F889E95455
:101E6000FD4F80829182A282B382ED81FE818082C9
:101E70009182A282B3828FEF9FEF61C08A30910579
:101E800031F4B6018F8598890E94050DD9CE863030
:101E9000910551F4B60189859A850E946B0A81E00B
:101EA000AB85BC858C93CCCE8B30910521F4EF8132
:101EB000F8851082C5CEFC01E752FF4FEE0FFF1FE1
:101EC0002F853889E20FF31F80819181009709F4F3
:101ED000B7CEDC01ED91FC910190F081E02DB601CF
:101EE0000995AECEEF85F889EA54FD4F80818823AD
:101EF00021F10F85188909541D4FF80180819181C6
:101F0000A281B381A5019401281B390B4A0B5B0BFD
:101F1000DA01C901853C9940A105B10570F08F85B2
:101F200098890E94F10BD8018D929D92AD92BC923E
:101F3000139703C08EEF9FEF02C080E090E06096A1
:101F4000E2E10C94571985EE92E09093520380934E
:101F5000510383E396E0909354038093530380E00E
:101F600091EEA0E0B0E08093550390935603A093C8
:101F70005703B09358031092070681EC92E09093B8
:101F800016068093150610921706109218061092E6
:101F9000190610921A061092200610921F0610922F
:101FA0002106109222061092230610922406109207
:101FB0002A061092290610922B0610922C061092D7
:101FC0002D0610922E061092320610923106E9E983
:101FD000F5E01192119285E0EB3CF807D1F7EBECBC
:101FE000F5E01192119285E0ED3FF807D1F7E9E6AF
:101FF000F3E0119284E0E138F807D9F7E1E8F4E082
:10200000119285E0E939F807D9F71092650310922B
:10201000660310926703109268038DEC92E0909330
:102020003C0380933B0310923D0310923E031092B9
:102030003F0310924003109241031092420310920A
:1020400043031092440310924503109246031092EA
:102050004703109248031092490310924A031092CA
:102060004B0310924C038EED91E0909332038093DA
:1020700031038BE393E09093340380933303109206
:102080003A03109239038FEE92E0909316038093F7
:10209000150389ED92E090931C0380931B0310922B
:1020A0001D0310921E0310921F0310922003109222
:1020B0002103109222031092230310922403109202
:1020C00025031092260310922703109228031092E2
:1020D000290310922A0310922B0310922C038FE7EE
:1020E00095E090932E0380932D0381E090E09093F0
:1020F000300380932F0388E192E090931A0380933A
:102100001903089583E396E00E940D11892B71F065
:1021100060914D0380914F030E94530683E396E044
:102120000E943911843111F00E9448060E946F0606
:102130000E94B00642E050E06DE875E080E00E9449
:10214000371590914E0320914D03892F880F880BEE
:1021500020933D0390933E0380933F03809340037D
:10216000809341038093420380934303809344030D
:102170009091500320914F03892F880F880B209353
:1021800045039093460380934703809348038093CD
:10219000490380934A0380934B0380934C038091BF
:1021A000370390913803DC01ED91FC916091350388
:1021B000709136030190F081E02D4BE353E00995D7
:1021C00081E593E00E94A20D0895A0E0B0E0EBEE5F
:1021D000F0E10C9445198C01EB01688179818A81C9
:1021E0009B8120E03AEC4AE95BE30E940E19F8017A
:1021F000C080D180E280F380C20ED31EE41EF51EA3
:10220000C082D182E282F382688379838A839B834E
:10221000CDB7DEB7E8E00C946119FC012485358563
:10222000F901E05CFF4F80819181329620813181FC
:10223000821B930B8F7399270895DC011C96ED91F7
:10224000FC911D97DF01A05CBF4F2D913C91119730
:1022500012968D919C9111972817390739F08D911D
:102260009C91E80FF91F808190E008958FEF9FEF18
:102270000895FC01A485B585FD01E05CFF4F208138
:1022800031813296808191812817390779F08081D8
:102290009181A80FB91F8C91208131812F5F3F4F11
:1022A0002F7333273183208390E008958FEF9FEFC2
:1022B0000895FC0181A1882329F0A489B5898C9116
:1022C00086FFFBCF11A208950F931F93CF93DF9347
:1022D000FC01A685B7858D01005C1F4FE801888150
:1022E000998101968F739927AD014E5B5F4FEA018B
:1022F0002881398182179307D1F3E8012881398138
:10230000A20FB31F6C93A685B785A05CBF4F119633
:102310009C938E93A689B7892C9181E090E0078CDD
:1023200002C0880F991F0A94E2F7822B8C9381E0F8
:1023300081A30488F589E02D80818064808381E019
:1023400090E0DF91CF911F910F91089508951F9212
:102350000F920FB60F9211242F934F935F938F9389
:102360009F93EF93FF938091C00082FD1CC020914A
:10237000C6008091D9069091DA0601968F7399274D
:102380004091DB065091DC068417950771F0E091CF
:10239000D906F091DA06E756F94F20839093DA06D2
:1023A0008093D90602C08091C600FF91EF919F9162
:1023B0008F915F914F912F910F900FBE0F901F90B3
:1023C000189583E396E00E940D11892B11F00E946D
:1023D000A61108951F920F920FB60F9211242F93FA
:1023E0003F938F939F93EF93FF93209195063091A6
:1023F000960680919706909198062817390731F430
:102400008091C1008F7D8093C10014C0E091970638
:10241000F0919806EB5AF94F2081809197069091A0
:10242000980601968F739927909398068093970644
:102430002093C600FF91EF919F918F913F912F9133
:102440000F900FBE0F901F901895A0E0B0E0EBE248
:10245000F2E10C944519EC016A017B014115514EE2
:102460006105710511F1EC89FD8981E090E008A01A
:1024700002C0880F991F0A94E2F7808360E079E038
:102480008DE390E0A70196010E940E1989019A013F
:10249000015011092109310936952795179507959E
:1024A0009801011580E11807A8F0EC89FD891082D8
:1024B00060E874E88EE190E0A70196010E940E1991
:1024C000DA01C9010197A109B109B695A7959795B8
:1024D00087959C01E889F9893083EA89FB89208303
:1024E00019A2EE89FF89408181E090E09C010C8C6B
:1024F00002C0220F331F0A94E2F7242B2083EE89B7
:10250000FF8940819C010D8C02C0220F331F0A9469
:10251000E2F7242B2083EE89FF8940819C010E8CF9
:1025200002C0220F331F0A94E2F7242B2083EE8986
:10253000FF8920810F8C02C0880F991F0A94E2F74F
:10254000809582238083CDB7DEB7E8E00C946119D3
:10255000E3E3F6E01382128288EE93E0A0E0B0E0BD
:1025600084839583A683B7838BEF92E091838083E6
:1025700089E996E09587848785E596E09787868741
:1025800085EC90E0918B808B84EC90E0938B828B38
:1025900080EC90E0958B848B81EC90E0978B868B20
:1025A00082EC90E0918F808F86EC90E0938F828F09
:1025B00084E0848F83E0858F87E0868F85E0878F36
:1025C00081E080A308950E941A140E941C07C1EEA6
:1025D000D1E10E9482102097E1F30E94E111F9CF2E
:1025E000A0E0B0E0E6EFF2E10C943F19EC010097B7
:1025F00021F4CB010E947816B8C0FC01E60FF71F4A
:102600009C0122503109E217F30708F4ACC0D9014C
:102610000D911C91119706171707B0F005301105A1
:1026200008F49FC0C80104978617970708F499C05B
:1026300002501109061B170B019311936D937C93A4
:10264000CF010E940D178DC05B01A01AB10A4C0189
:10265000800E911EA091EC06B091ED0640E050E096
:10266000E12CF12C109709F44AC0A815B905D1F551
:102670006D907C901197630182E0C80ED11CCA1442
:10268000DB0480F1A3014A195B096A0182E0C80EEC
:10269000D11C1296BC9012971396AC91B5E0CB1654
:1026A000D10440F0B282A38351834083D9016D935A
:1026B0007C930AC00E5F1F4FC301800F911FF90169
:1026C00091838083EB2DFA2FE114F10431F0D701CF
:1026D0001396FC93EE93129744C0F093ED06E093AB
:1026E000EC063FC08D919C9111974817590708F44B
:1026F000AC017D0112960D90BC91A02DB3CF8091BD
:10270000EA069091EB0688159905E1F446175707FC
:10271000C8F480910C0190910D01009741F48DB7A0
:102720009EB74091100150911101841B950BE81741
:10273000F907C8F4F093EB06E093EA06F901718318
:1027400060830FC0CB010E9478167C01009759F07E
:10275000A801BE010E94BE19CE010E940D17C7013B
:1027600004C0CE0102C080E090E0CDB7DEB7EEE05D
:102770000C945B191F920F920FB60F9211242F9396
:102780003F938F939F93AF93BF938091DE06909179
:10279000DF06A091E006B091E1063091DD0623E06E
:1027A000230F2D3720F40196A11DB11D05C026E889
:1027B000230F0296A11DB11D2093DD068093DE0636
:1027C0009093DF06A093E006B093E1068091E206C5
:1027D0009091E306A091E406B091E5060196A11D53
:1027E000B11D8093E2069093E306A093E406B093B4
:1027F000E506BF91AF919F918F913F912F910F90DF
:102800000FBE0F901F9018952FB7F8946091DE06B9
:102810007091DF068091E0069091E1062FBF089548
:10282000019739F0880F991F880F991F0297019718
:10283000F1F70895789484B5826084BD84B5816091
:1028400084BD85B5826085BD85B5816085BDEEE6B8
:10285000F0E0808181608083E1E8F0E01082808197
:1028600082608083808181608083E0E8F0E0808105
:1028700081608083E1EBF0E0808184608083E0EB25
:10288000F0E0808181608083EAE7F0E0808184600D
:102890008083808182608083808181608083808169
:1028A000806880831092C1000895A0E0B0E0EBE55D
:1028B000F4E10C94411990E0FC01E458FF4FA4911D
:1028C000FC01E057FF4F8491662311F0BA2F01C03D
:1028D000B0E089019A013F7090E0880F991F8C55F4
:1028E0009F4F480159014FEF841A940AA40AB40A71
:1028F000C12CD12C7601FC01C591D49168816A2349
:102900006B131AC05FEFC51AD50AE50AF50AC81499
:10291000D904EA04FB0479F745C0460157016FEF7B
:10292000861A960AA60AB60AC016D106E206F30669
:1029300009F438C075016401FC01C591D491688126
:102940006A236B13EACFB901A8014C195D096E091E
:102950007F096A017B0120E030E0A901FC01C591FB
:10296000D49168816A236B130AC02C153D054E056E
:102970005F05C1F02F5F3F4F4F4F5F4FEFCFA5E196
:10298000B0E00E943019DC01CB014096A11DB11DC1
:10299000BC01CD0124E096958795779567952A959A
:1029A000D1F703C060E070E0CB01CDB7DEB7ECE05B
:1029B0000C945D191F93CF93DF93182FEB0161E007
:1029C0000E94EA15209711F460E004C0CF3FD105C2
:1029D00029F461E0812F0E94261645C0E12FF0E026
:1029E000E859FF4FE491E330F9F048F4E130B9F0F1
:1029F000E230A1F584B5806284BDC8BD34C0E63044
:102A0000E9F0E73019F1E43049F580918000806207
:102A100080938000D0938B00C0938A0024C084B53B
:102A2000806884BDC7BD1FC080918000806880938E
:102A30008000D0938900C093880015C08091B000B9
:102A400080688093B000C093B3000DC08091B00047
:102A500080628093B000C093B40005C0C038D10537
:102A60000CF0B7CFB1CFDF91CF911F910895823095
:102A7000E8F4E82FF0E0EE0FFF1FEA51F94F718301
:102A80006083813041F0809169008C7F482B4093B6
:102A90006900E89A089580916900440F551F440F1A
:102AA000551F837F482B40936900E99A089582302F
:102AB00068F4813011F0E89801C0E998E82FF0E05F
:102AC000EE0FFF1FEA51F94F1182108208951F92F5
:102AD0000F920FB60F9211242F933F934F935F9352
:102AE0006F937F938F939F93AF93BF93EF93FF93D6
:102AF0008091E6069091E706892B29F0E091E606A1
:102B0000F091E7060995FF91EF91BF91AF919F91E9
:102B10008F917F916F915F914F913F912F910F9086
:102B20000FBE0F901F9018951F920F920FB60F9225
:102B300011242F933F934F935F936F937F938F93C2
:102B40009F93AF93BF93EF93FF938091E80690918B
:102B5000E906892B29F0E091E806F091E90609954C
:102B6000FF91EF91BF91AF919F918F917F916F9165
:102B70005F914F913F912F910F900FBE0F901F903B
:102B80001895833081F028F4813099F08230A1F0DB
:102B900008958630A9F08730B9F08430D1F480915F
:102BA00080008F7D03C0809180008F7780938000AC
:102BB000089584B58F7702C084B58F7D84BD089554
:102BC0008091B0008F7703C08091B0008F7D80939B
:102BD000B0000895CF93DF9390E0FC01E458FF4FDD
:102BE0002491FC01E057FF4F8491882361F190E02C
:102BF000880F991FFC01E854FF4FC591D491FC0147
:102C0000E255FF4FA591B491611109C09FB7F894A7
:102C10008881209582238883EC912E230BC062301B
:102C200061F49FB7F8943881822F8095832388833D
:102C3000EC912E2B2C939FBF06C08FB7F894E881A0
:102C40002E2B28838FBFDF91CF9108951F93CF93B1
:102C5000DF93282F30E0F901E859FF4F8491F90103
:102C6000E458FF4FD491F901E057FF4FC491CC23B2
:102C7000C9F0162F81110E94C115EC2FF0E0EE0F64
:102C8000FF1FE255FF4FA591B4918FB7F894111132
:102C900005C09C91ED2FE095E92302C0EC91ED2B4E
:102CA000EC938FBFDF91CF911F910895A0E0B0E02A
:102CB000ECE5F6E10C9445196C01EB017B01E40EA7
:102CC000F51E00E010E0CE15DF0561F06991D60138
:102CD000ED91FC910190F081E02DC6010995080F5E
:102CE000191FF1CFC801CDB7DEB7E8E00C94611928
:102CF000CF93DF938230910510F482E090E0E09171
:102D0000EC06F091ED0620E030E0C0E0D0E0309736
:102D100011F14081518148175907C0F048175907F0
:102D200061F482819381209719F09B838A832BC061
:102D30009093ED068093EC0626C02115310519F01D
:102D40004217530718F49A01BE01DF01EF01028018
:102D5000F381E02DDCCF2115310509F1281B390B5A
:102D60002430310590F412968D919C911397611542
:102D7000710521F0FB019383828304C09093ED06DB
:102D80008093EC06FD01329644C0FD01E20FF31F73
:102D900081939193225031092D933C933AC0209115
:102DA000EA063091EB06232B41F420910E0130917D
:102DB0000F013093EB062093EA0620910C0130912D
:102DC0000D012115310541F42DB73EB74091100199
:102DD00050911101241B350BE091EA06F091EB06AE
:102DE000E217F307A0F42E1B3F0B2817390778F0E2
:102DF000AC014E5F5F4F2417350748F04E0F5F1F41
:102E00005093EB064093EA068193919302C0E0E071
:102E1000F0E0CF01DF91CF9108950F931F93CF93EF
:102E2000DF93009709F48CC0FC0132971382128261
:102E30000091EC061091ED060115110581F4208139
:102E40003181820F931F2091EA063091EB062817FB
:102E5000390779F5F093EB06E093EA0671C0D801E3
:102E600040E050E0AE17BF0750F412962D913C9110
:102E70001397AD012115310509F1D901F3CF9D015A
:102E8000DA013383228360817181860F971F821755
:102E9000930769F4EC0128813981260F371F2E5FD3
:102EA0003F4F318320838A819B8193838283452B8B
:102EB00029F4F093ED06E093EC0642C01396FC93E0
:102EC000EE931297ED01499159919E01240F351F00
:102ED000E217F30771F480819181840F951F0296A8
:102EE00011969C938E938281938113969C938E93DB
:102EF0001297E0E0F0E0D80112968D919C91139723
:102F0000009719F0F8018C01F6CF8D919C919801F2
:102F10002E5F3F4F820F931F2091EA063091EB0600
:102F20002817390769F4309729F41092ED061092AA
:102F3000EC0602C0138212821093EB060093EA069D
:102F4000DF91CF911F910F9108950E94AC17689463
:102F5000B1110C94631808950E94481888F09F5787
:102F600098F0B92F9927B751B0F0E1F0660F771FAD
:102F7000881F991F1AF0BA95C9F714C0B13091F0A3
:102F80000E946218B1E008950C946218672F782FA0
:102F90008827B85F39F0B93FCCF386957795679568
:102FA000B395D9F73EF490958095709561957F4FD4
:102FB0008F4F9F4F0895E89409C097FB3EF490957A
:102FC0008095709561957F4F8F4F9F4F9923A9F002
:102FD000F92F96E9BB279395F69587957795679591
:102FE000B795F111F8CFFAF4BB0F11F460FF1BC0D5
:102FF0006F5F7F4F8F4F9F4F16C0882311F096E968
:1030000011C0772321F09EE8872F762F05C0662315
:1030100071F096E8862F70E060E02AF09A95660FCE
:10302000771F881FDAF7880F9695879597F9089587
:1030300097F99F6780E870E060E008959FEF80EC6B
:10304000089500240A94161617061806090608950E
:1030500000240A9412161306140605060895092E74
:103060000394000C11F4882352F0BB0F40F4BF2BE3
:1030700011F460FF04C06F5F7F4F8F4F9F4F089523
:1030800057FD9058440F551F59F05F3F71F0479519
:10309000880F97FB991F61F09F3F79F087950895FE
:1030A000121613061406551FF2CF4695F1DF08C01D
:1030B000161617061806991FF1CF8695710561053A
:1030C00008940895E894BB2766277727CB0197F9E2
:1030D00008950E947C180C942F180E94211838F033
:1030E0000E94281820F0952311F00C9418180C94C5
:1030F0001E1811240C9463180E94401870F3959FB9
:10310000C1F3950F50E0551F629FF001729FBB27DE
:10311000F00DB11D639FAA27F00DB11DAA1F649F7A
:103120006627B00DA11D661F829F2227B00DA11D2D
:10313000621F739FB00DA11D621F839FA00D611DB3
:10314000221F749F3327A00D611D231F849F600DD4
:10315000211D822F762F6A2F11249F5750409AF0FD
:10316000F1F088234AF0EE0FFF1FBB1F661F771F89
:10317000881F91505040A9F79E3F510580F00C9454
:1031800018180C9463185F3FE4F3983ED4F38695C7
:1031900077956795B795F795E7959F5FC1F7FE2BF4
:1031A000880F911D9695879597F90895DB018F9368
:1031B0009F930E943019BF91AF91A29F800D911DE6
:1031C000A39F900DB29F900D11240895AA1BBB1BC5
:1031D00051E107C0AA1FBB1FA617B70710F0A61B17
:1031E000B70B881F991F5A95A9F780959095BC0138
:1031F000CD01089597FB072E16F4009407D077FDB4
:1032000009D00E94E61807FC05D03EF49095819500
:103210009F4F0895709561957F4F0895A1E21A2EF2
:10322000AA1BBB1BFD010DC0AA1FBB1FEE1FFF1F6A
:10323000A217B307E407F50720F0A21BB30BE40BBA
:10324000F50B661F771F881F991F1A9469F7609501
:103250007095809590959B01AC01BD01CF010895BB
:103260000E94AF19A59F900DB49F900DA49F800D53
:10327000911D112408952F923F924F925F926F9269
:103280007F928F929F92AF92BF92CF92DF92EF92F6
:10329000FF920F931F93CF93DF93CDB7DEB7CA1B77
:1032A000DB0B0FB6F894DEBF0FBECDBF09942A88A2
:1032B000398848885F846E847D848C849B84AA844A
:1032C000B984C884DF80EE80FD800C811B81AA81D7
:1032D000B981CE0FD11D0FB6F894DEBF0FBECDBFA2
:1032E000ED0108950F93083090F0982F872F762FD7
:1032F000652F542F432F322F22270850F4CF220F4F
:10330000331F441F551F661F771F881F991F0A957B
:10331000B2F70F91089597FB10F8169400080F93D9
:10332000083098F00850232F342F452F562F672F41
:10333000782F892F902DF4CF0594979587957795C1
:10334000679557954795379527950A95AAF70F9151
:103350000895EE0FFF1F0590F491E02D0994A29FB0
:10336000B001B39FC001A39F700D811D1124911D59
:10337000B29F700D811D1124911D0895FB01DC0188
:1033800002C001900D9241505040D8F70895F89432
:02339000FFCF6D
:103392000700040006000500090014000000EE0604
:1033A20080007374645F6D7367732F54696D650079
:1033B20063643731363663373463353532633331DC
:1033C200316662636332666535613762633238390A
:1033D20000726F7373657269616C5F6D7367732FCF
:1033E200546F706963496E666F003061643531668F
:1033F20038386663343438393266386331303638B7
:103402003430373736343630303500726F73736587
:103412007269616C5F6D7367732F4C6F6700313136
:103422006162643733316332353933333236316373
:1034320064363138336264313264363239350039B8
:103442006630653938626461363539383139383633
:1034520064646635336166613761343065343900DE
:103462006B756D70756C616E5F6D7367732F6172D2
:103472006475696E6F5F6974003731383562643321
:103482003264333064303939396136393736343160
:10349200373533623736663732006B756D70756C4F
:1034A200616E5F6D7367732F69745F636F6E7472A1
:1034B2006F6C0036303638316237613964376134C7
:1034C2003561663736386237646136336565393758
:1034D200666563004D6573736167652066726F6D23
:1034E200206465766963652064726F707065643A02
:1034F200206D657373616765206C61726765722008
:103502007468616E206275666665722E00726F73F2
:1035120073657269616C5F6D7367732F5265717544
:10352200657374506172616D00000000008D00B11E
:1035320000F700FA0000000000B808A009FD000032
:1035420001000000008E085F09030106010000006F
:1035520000C2076B0A09010C01000000000F01E91B
:103562000141034403000000004703210479057C64
:103572000500000000B805A20DB30500000000938D
:1035820005A905AD05B00500000000641156160D31
:083592001139111D115911003E
:00000001FF
